:020000042400D6
:10000000000002201D0400241104002425A3002464
:100010001104002411040024110400240000000035
:100020000000000000000000000000001104002497
:10003000110400240000000011040024A9A20024DF
:1000400011040024110400241104002411040024CC
:1000500011040024110400241104002411040024BC
:100060001104002411040024110400245D9D0024C7
:10007000699D00248D780024759D0024819D0024B5
:10008000B97E0124098300241104002411040024F2
:10009000110400241104002411040024110400247C
:1000A000110400241104002411040024110400246C
:1000B0007D700124897001249570012449830024F6
:1000C00011040024558300241104002481680124B4
:1000D0008D680124C97C0124F97C0124317D01242F
:1000E0001104002411040024000000001104002465
:1000F000110400241104002411040024110400241C
:100100001104002411040024A17001249968012421
:10011000697D0124A17D012411040024110400241F
:100120001104002411040024BD680124FD68012489
:10013000F97E012411040024110400241104002478
:1001400000000000000000000000000000000000AF
:10015000110400241104002411040024D97D012479
:100160006183002411040024B9A20024DDA200242C
:100170001104002401A3002411040024110400240C
:100180001104002411040024117E0124497E01245D
:10019000A5680124B168012411040024110400247D
:1001A000110400241104002411040024110400246B
:1001B0006199002411040024110400241104002476
:1001C00011040024110400247D7300248973002489
:1001D0001104002495730024110400241104002448
:1001E000110400241104002411040024110400242B
:1001F000110400241104002411040024110400241B
:10020000110400241104002411040024110400240A
:1002100011040024110400241104002411040024FA
:100220001104002411040024110400240000000023
:100230001104002411040024000000001104002413
:1002400011040024110400241104002411040024CA
:1002500011040024110400241104002411040024BA
:1002600011040024110400241104002411040024AA
:100270001104002411040024817E012400000000E8
:1002800011040024110400241104002400000000C3
:0802900000000000110400242D
:1002A00001F0FF01102A2BDB10F0070F08D010F827
:1002B000013B013A8B422DD010F0070F42B3F6D12B
:1002C000F0B441EA012141EA014122F007047FF044
:1002D00000070023F0E80256083C85EA010586EA9B
:1002E000010685FA47F5A3FA87F586FA47F6A5FAD7
:1002F00087F68EB9EED1F0BC01F0FF0102F00702E3
:1003000032B110F8013B013A83EA010313B1F8D18D
:100310000020704701387047002D06BF354603386E
:10032000073815F0010F07D1013015F4807F02BFA7
:10033000013015F4C03F0130F0BC0138704700BFF8
:10034000034613F8012B002AFBD1181A0138704715
:1003500053B94AB9002908BF00281CBF4FF0FF312C
:100360004FF0FF3000F00CB8ADF1080C6DE904CE91
:100370001DF01AFDDDF804E0DDE9022304B070474A
:10038000704700BF0348044B834202D0034B03B1C4
:1003900018477047140600201406002000000000D3
:1003A0000548064B1B1AD90F01EBA301491002D0D7
:1003B000034B03B1184770471406002014060020B1
:1003C0000000000010B5064C237843B9FFF7DAFFB0
:1003D000044B13B10448AFF300800123237010BD18
:1003E0001806002000000000A809022408B5054BEB
:1003F0001BB105490548AFF30080BDE80840FFF791
:10040000CFBF00BF000000001C060020A809022486
:10041000684620F007018D46FEE7000008B50B4A4C
:100420000B4B0C498B4209D10B4B00210B4A9342D9
:1004300009D11CF047FD01F08BF9FEE752F8040BDF
:1004400043F8040BEEE743F8041BF0E7E00902244D
:10045000000000201406002018060020A48C0020B4
:1004600070B58B68044616460D1D01203BB9E0B1FE
:10047000CA6895420ED1C4E90035204670BD1D6999
:10048000D3E90202B5421D46CABF02460020012040
:100490001346EBE728461AF001F80369B3424FF020
:1004A0000003E8DBC4E90003E7E72846F5E738B5D1
:1004B000044604B938BDE068FFF7F9FF04F1140001
:1004C000A5681AF08BF820462C212C4619F077FFEE
:1004D000EFE738B5044604B938BDE068FFF7F9FF27
:1004E00004F11000A5681AF079F820462C212C465A
:1004F00019F065FFEFE70000F7B500F108050446C5
:100500000E46056011B90F481AF031F80846FFF79A
:1005100017FF0F280746019008D9002201A920469D
:100520001AF03EF8019B05462060A3603A4631462A
:1005300028461AF073F8019B226800216360D154A9
:1005400003B0F0BDDAE1012410B504468068FFF77E
:10055000AEFF204610BD00234FF60B72C0E90233F8
:10056000C0E90023704710B5044607F07BFD40B199
:1005700004F1140007F076FD80F00100C0B24000E5
:1005800010BD0120FCE770B56FF0F41300250446A0
:100590004561056204F52176C0E90053C0E90233E4
:1005A0002830FFF7D8FF04F13C00FFF7D4FF04F137
:1005B0005800FFF7D0FF256704F1740505F1180016
:1005C000FFF7C9FF05F14400FFF7C5FF05F1700013
:1005D0008435FFF7C0FFAE42F0D104F55B70FFF742
:1005E000BAFF04F56270FFF7B6FF04F56870FFF715
:1005F000B2FF04F56D70FFF7AEFF04F57270FFF700
:10060000AAFF04F57770FFF7A6FF204670BD000033
:1006100090ED0A2B90ED027B90ED005B90ED044B8A
:1006200022EE077BB0EE403B90ED0E6BA5EE007B1B
:1006300090ED0C5B9FED0C0B80ED0C2B80ED0A3BDD
:10064000A4EE057B90ED065B90ED084BA5EE067BD6
:1006500090ED105B80ED106BA4EE057B37EE000B88
:1006600080ED0E0B704700BF000000000000103846
:1006700090ED005B90ED067B90ED084BB0EE406B8B
:1006800027EE057B90ED045B80ED006BA5EE007B13
:1006900090ED025B9FED040BA4EE057B37EE000BA3
:1006A00080ED020B704700BF000000000000103812
:1006B00090ED1C6B90ED267B9FED653B9FED665B9F
:1006C00027EE067BD0F8A0300F2B9FED652B90ED29
:1006D000224B27EE076B27EE033B27EE022BA6EEFD
:1006E000053B9FED615B33EE453B9FED615B27EE84
:1006F000055BA6EE035B9FED603B35EE435B9FED34
:10070000603B27EE033BA6EE053B9FED5F5B33EEC0
:10071000453B9FED5F5B27EE055BA6EE035B9FED20
:100720005E3B35EE435B9FED5E3B27EE033BA6EE63
:10073000053B9FED5D5B33EE453B9FED5D5B27EE3B
:10074000055BA6EE035B9FED5C3B35EE435BB7EECE
:10075000003B80ED025B35EE035B80ED183B80EDE6
:10076000005B9FED575BA6EE052B9FED575B32EECE
:10077000052B9FED575B27EE055BA6EE025B9FED19
:10078000562B35EE425B9FED562B27EE022BA6EE45
:10079000052B9FED555B32EE052B9FED555B27EE4C
:1007A000055BA6EE025B9FED546B35EE066B26EE05
:1007B000046B80ED166B47D19FED516B9FED525B43
:1007C0009FED532B27EE067B87EE056B9FED527B4B
:1007D0009FED535BA6EE075BB0EE437B26EE061B58
:1007E000A6EE027B9FED502BA1EE027B85EE072B40
:1007F0009FED4F5B9FED507B36EE055BA5EE067BD4
:100800009FED4F5BA7EE065B9FED4F7BA5EE067B52
:100810009FED4F5B80ED002B9FED4F2BA7EE065B0E
:100820009FED4F7BA5EE067BBFEE005B34EE036BC6
:10083000A7EE025B27EE047BA5EE043B80ED167B62
:1008400026EE036B80ED186B704700BFAFF300809E
:10085000EE627F0E77E9B43F4A6415522D788BBF64
:10086000239F21581E34F5BE13ED31A2C045CE3F63
:10087000B9E496C8116ADC3FA7391530CA26E43FAF
:10088000E52040CA5218E83FC71DC2C04D66EA3F86
:1008900050C70BD8DFF4EB3F43EEB4C79F53ED3F97
:1008A00029D7591F8DAAEE3FC654E5F0FEFFEF3F52
:1008B000E3AC1EFCFFFFEF3F7F0AFEFFFFFFEF3FB1
:1008C0001D78271B2FE107BF92661909F4CF663FF9
:1008D0008708662AE909613F5EC866114555B53F3C
:1008E000851D5D9F5655C5BFB62B41030000F03FE7
:1008F000B8F9F3FFFFFF0F407F0000000000104039
:10090000CD3B7F669EA0E63F182D4454FB21194045
:1009100015C8EC2C7AB7284040B10408D5C418405B
:10092000EDA481DF61D53D3F755B22179CA9114085
:1009300003098A1FB31EBC403EE8D9ACCACDB6C07D
:10094000448655BC91C77DC007EBFF1CA63783408A
:1009500004CAA65CE1BB6A401E1E1E1E1E1EAE3FE0
:10096000A6811FD5B0FF30409FED0F7B38B520EE3C
:10097000070B00F5503404F59065B8EE087B05EDE3
:10098000020B20EE070B19F03FFF04F57E70B7EE67
:10099000007B9FED075B37EE407B87EE056B85EDB7
:1009A000006BFFF785FE38BD7B14AE47E17A843FCC
:1009B000F51433F32468EE3F2DE9F84300F5503485
:1009C000054694F801392DED0C8B002B40F0818207
:1009D00004F5C26300F5523793ED026B97ED147B7B
:1009E00093ED005B36EE476BA5EE067B97ED386B1B
:1009F00083ED027B27EE067BB5EEC07BF1EE10FAAD
:100A000008DD9FED656BB4EEC67BF1EE10FA01D503
:100A100084EDF07B94EDECAB94EDF07B94EDFABBC0
:100A200004F5B8632AEE077B93ED0C5B93ED048B22
:100A300027EE0BBB93ED087B84EDF2BBB4EEC75BF6
:100A4000F1EE10FA40F18E8093ED067B93ED026B90
:100A500037EE487BA6EE078B93ED0E7B37EE057BDA
:100A600083ED048B83ED0C7B04F5D463B0EE485B1F
:100A7000B0EE000B93ED027B93ED006B97ED369B90
:100A800037EE487BB5EEC09BA6EE075BF1EE10FAA1
:100A900097ED3A4B9FED4C3B97ED3C1B97ED20CBF0
:100AA00083ED025B38FE033B04F5D86393ED027BD4
:100AB00093ED006B37EE437BA6EE073B97ED267B6D
:100AC00097ED286B14EE057B21EE031B83ED023BB3
:100AD00029EE011BA6EE071B1AF016F904F58E632A
:100AE0002CEE00CB13ED027BB4EE47CBF1EE10FA07
:100AF00016D004F57E709FED2A0BB4EEC0CBF1EE5C
:100B000010FA07D49FED240BB4EEC0CBF1EE10FA2F
:100B100030FE0C0B04F58E6303ED020BFFF7C8FDEE
:100B200004F59E6394F8B92593ED1E7B93ED186B45
:100B300093ED2E0BB4EEC67BF1EE10FA19D8B0EEA1
:100B4000403B93ED265B93ED026B93ED284B95EEC6
:100B5000063BA4EE030B93ED226B36EE076B83EDA1
:100B60001E6B40E093ED007B28EE078B83ED048B3A
:100B70007AE793ED1A6BB4EEC67BF1EE10FA27D844
:100B800093ED046B93ED2A5B36EE406BA5EE060BFE
:100B9000E1E700BFAFF30080000000000088D34011
:100BA0000000000000006940CDCCCCCCCCCCDC3FB8
:100BB000CD3B7F669EA0F63FCD3B7F669EA0F6BFF5
:100BC000555555555555C53F000000000000000023
:100BD000002A00F0148193ED047B93ED2A6B37EE2D
:100BE000407BA6EE070B04F59E6383ED2E0B3AB116
:100BF000B1EE006B1FED147BA9EE067BA7EE080B90
:100C000005F55135042605F50C70FFF701FDB0EE32
:100C1000408BD4F8F0E3BEF1000F00F00081D4F86F
:100C2000F403002800F0FB801BEE903A6FF47F7213
:100C3000C3F30A53134494EDEE6BB4EEC6ABF1EE7E
:100C400010FA40F2E380BBFE467BFDEEC77BB7EEB9
:100C5000005B002B94EDF44B17EE902AB8EEE77B87
:100C600035EE443B36EE477B40F3D5800C2BD4BFAA
:100C700019460B2140F2044802F1010C35EE475BA6
:100C8000002B08FB012908FB01C109F2034901F20D
:100C900003410EEBC9090EEBC10E9EED000B99ED61
:100CA000002B27EE000BA5EE020B20EE030B40F30A
:100CB000B4800D2BA8BF0B2308FB03223BEE066B71
:100CC00008FB03C302F2034203F2034300EBC20238
:100CD00000EBC30090ED003B27EE037B92ED003B61
:100CE00084EDEE6BB6EE006BA3EE057B27EE047B86
:100CF000A7EE060B05F5387004F58A6904F58468DB
:100D0000B1EE400BFFF7B4FCD4F89834B0EE40CB12
:100D100004F594600F2B99ED006B98ED009B40F06B
:100D200081801FED5D0BB4EEC09BF1EE10FA07DC85
:100D30001FED5F0BB4EEC90BF1EE10FA30FE090B9C
:100D40001FED617B20EE077B27EE007BA0EE470BBB
:100D500020EE060BFFF78CFC04F5826304F5846239
:100D60003CEE400BB0EE004B13ED023B94EDFE5B0E
:100D700093ED007B30EE430B35EE056B30EE070B49
:100D8000A6EE003B12ED026B03ED023BA7EE443BE7
:100D900033EE063BA5EE037B83ED007BA6EE447BA2
:100DA00004F58C6313ED020B30EE000B37EE097B7C
:100DB000A5EE076B02ED026BA9EE446BA5EE069B58
:100DC00020EE090B82ED009B013E7FF422AF05F57A
:100DD0006070FFF74DFC05F54C70FFF749FC05F519
:100DE0007470FFF715FC28EE000B97ED127B84F86A
:100DF000016920EE070BBDEC0C8BBDE8F88393ED89
:100E0000066B93ED2C5B36EE406BBFE636EE4A6B1D
:100E100084EDEE6B0FE700212CE700234CE71FED7C
:100E2000960B67E704F58C63B4EE007B26EE090BA6
:100E300093ED00DB2DEE07DBFFF71AFC04F5826370
:100E400004F5866213ED026B95ED004B9CEE0D0BE5
:100E500030EE466BB0EE407BA4EE067B93ED006B6C
:100E6000B0EE473B37EE466B03ED027BA4EE063B4C
:100E700018ED026BB0EE435B33EE466B83ED003B47
:100E8000A4EE065B04F5886392ED006B27EE067B0B
:100E900035EE499BB0EE452B12ED026BA4EE092B0B
:100EA000A0EE067B13ED026B08ED025B88ED002BD4
:100EB000A3EE067BB0EE470B93ED007BA5EE070B90
:100EC00019ED027BA2EE070BB2EE007B20EE070BC2
:100ED0007AE71FEDC30B8EE770B59FED1C0A0D4638
:100EE000164600242DED028BB4421CD130EE008A50
:100EF0009FED161A02211648F0EE480AB0EE480A95
:100F000004F058FEF0EE480AB0EE480A10489FED93
:100F10000F1A032104F04EFE0D48BDEC028BBDE814
:100F2000704004F04FBE0B4B1868FFF745FD2B686F
:100F3000B7EEC00B03EB840383ED000A6B6803EB91
:100F40008403013483ED000ACEE700BF00000000F7
:100F5000600600205C060020084B094AD3ED047AA5
:100F6000FCEEE77A17EE901AD3ED057A054BFCEE0E
:100F7000E77A118017EE902A1A8070473406002015
:100F80000600002004000020034B00221968034BD8
:100F9000186804F0FAB800BF080000205C060020C2
:100FA00010B50E4C94F8682394F880336AB17F2B07
:100FB0000BD194F8682394F8803352B1802B08D178
:100FC000C820BDE8104009F01FBA054806F01CF91A
:100FD000E7E7034806F018F9EBE700BF60060020DA
:100FE000C40900202DE9F0410C460646D0F80080E7
:100FF000202019F0EAF9074600F108050FCC0FC5CB
:1010000094E8030085E803004146384619F0FEF9EC
:10101000B3680133B360BDE8F0812DE9F04100F51C
:10102000503800F5523486B0D8F8047904F582744B
:10103000BC4222D007F108066D460FCE0FC596E8D8
:10104000030085E803003D463F6805F1080003F012
:1010500033F82021284619F0B2F9BC42F3D100231D
:1010600020466946C8F80849C8F80449C8F80C3948
:10107000FFF7B8FF684603F01FF806B0BDE8F0813F
:10108000F0B504202DED048B9DB009F0BDF9884822
:1010900004F074FD0BAB002209A8099311AB1146B3
:1010A0000A928DF82C208DF84420129215928DF81A
:1010B0005C2018921B92CDE9133317ABCDE919339D
:1010C00004238DF83C3001238DF83E300223009339
:1010D000784B19F031FB0A9A3C23042A8DF83D30F5
:1010E00006D1754909981BF061FE002800F0A48024
:1010F0009DF83E30013B07EE903A9DF83C3007EEFC
:10110000103AB8EEE76B9FED665BB8EEC77BA6EED4
:10111000057BB0EE006B37EE467BB7EEC77B644BCA
:101120004FF2E0628DED087AD3F884321B88934247
:1011300000F28580614A07EE103A614B1288B8EEE2
:10114000477A1B8807EE902A06EE903AF8EEE77A87
:10115000F8EEE66A77EEC77A87EEA67AB5EEC07A41
:10116000F1EE10FA06DDF1EE047AB4EEE77AF1EE74
:1011700010FA07D5B5EEC07ADFED527AF1EE10FA2B
:1011800077FE277AF2EE086A9FED4F7A9FED4F8A3D
:10119000A7EEA67AF8FE477AF4EEC87AF1EE10FAD6
:1011A00007DCB3EE088AB4EEE78AF1EE10FA38FEF7
:1011B000278A9FED479A03213D4804F00FFDB4EEC6
:1011C000C90A444CF0EE408AF1EE10FA206839DD8D
:1011D0009FED410A28EE800AB7EEC00A03F05CFCDE
:1011E000BDEEC88A3D4D0621314885ED008A04F0E8
:1011F000F5FCDFED3B7A2068B4EEE70AF1EE10FA79
:10120000F4EEC98ACCBF7F266426F1EE10FA1CDC0E
:1012100003F09FFF32462968206803F0B6FF189854
:10122000FFF745F91298FFF754F909A819F0D6F914
:101230001DB0BDEC048BF0BD9FED227A6FE7DFEDB2
:10124000217A9FE79FED180BC8E7FFF7E6FE2468B9
:101250002D68012204F551372046294603F020FF6E
:1012600007F5E07001F0B1FC07F1F000012101F099
:101270006DF804F5503332462946C3F8F858002378
:1012800002A8009302F005FF04F5523002A900F510
:101290008270FFF7A7FE02A802F00EFFBFE700BFB3
:1012A000F792C6681D55B53F0000000000004E4093
:1012B000600600200CE201240FE201240600002059
:1012C0000400002000000000000010420000C042A6
:1012D000CDCC4C3D5C0600200000C8430800002037
:1012E0006666663F10B50446006818B1A168091A21
:1012F00019F065F8204610BD38B5044604B938BD6C
:10130000E068FFF7F9FF04F12800A568FFF7EAFF9E
:1013100004F1100019F062F9204634212C4619F02E
:101320004EF8EBE710B504468068FFF7E5FF20466E
:1013300010BD0000B3F1005FF8B505460F46144636
:1013400002D30C4819F016F99E001BB1304619F073
:101350003CF80346E41B1E44002CAE60C5E9003394
:1013600005DD1846224639461BF0E2FD03196B6085
:10137000F8BD00BF14E201240F2A37B504460D461C
:10138000019206D9002201A919F00AF9019A2060F8
:10139000A26001322946206819F040F9019B636080
:1013A00003B030BD2DE9F04F002385B00D4600F1AC
:1013B000040903710446836043611346CDE90012BA
:1013C0001C2202FB031B1544C0E90399A5F11C0371
:1013D0009B4503D1204605B0BDE8F08F636955F801
:1013E0001CAC1BB126693369534508DB52462146C4
:1013F00002A8FFF735F8039EFEB1029BFBB9B14589
:101400001DD037695745D4BF002701272C2018F07D
:10141000DCFF00F11C038046C0F810A043611430CB
:1014200055E90612FFF7A8FF4B46324641463846BB
:1014300019F036F86369013363611C35C6E701278B
:10144000E4E730B5836985B004460193D0E904012F
:10145000CDE90201D4E9000108F014F9054609F0CC
:101460007DF918B10C21284608F008FF95ED027AA5
:10147000D4ED057AB4EE677AF1EE10FA0BD061681C
:10148000206801F10C0208F00FF801AB0C22D4E93E
:10149000000108F003F805B030BD000008B50B4BA3
:1014A0000B4A1B88104607EE903A0A4BF8EE677A13
:1014B0001B88C2ED047A07EE903A0223F8EE677AB1
:1014C0009361C2ED057AFFF7BCFF08BD060000205E
:1014D000340600200400002070B50124934E944887
:1014E0002DED048B347005F08FFEB7EE001A00214D
:1014F0009048F0EE410AB0EE410A04F05BFBB7EE13
:10150000001A21468B48F0EE410AB0EE410A04F081
:1015100051FBB7EE001A02218648F0EE410AB0EE08
:10152000410A04F047FBB7EE001A82480321F0EEAF
:10153000410AB0EE410A04F03DFB7E4804F042FB54
:101540007C4C7D4806F08EFD94F88133834240F058
:10155000E8809FED7A1AF7EE000A00212046B0EEEF
:10156000410A0A2504F026FB9FED741A012120464A
:10157000F0EE410A9FED719AB0EE410A04F01AFBB9
:101580009FED6E1A02212046F0EE410AB0EE410AAC
:1015900004F010FB9FED691A03212046F0EE410A8A
:1015A000B0EE410A04F006FB204604F00BFBFFF707
:1015B000F7FCD4F88432DFED610AB7EE001A1B881D
:1015C0000021B0EE600A204608EE103A04F0F2FA6C
:1015D000DFED5A0AB7EE001A01212046B0EE600A8C
:1015E00004F0E8FA9FED551A02212046F0EE410A78
:1015F000B0EE410A04F0DEFA9FED501AB8EE488AC8
:101600000321F0EE410A2046B0EE410A04F0D2FA7E
:10161000204604F0D7FAFFF7C3FC4948013D05F026
:10162000D7FCD4F8843215F0FF051B8807EE903AFA
:10163000F8EEE77A39EE279AEFD1B7EE001A29468D
:101640009FED3E0AF2EE049A3A480A25F0EE410A6E
:1016500004F0B0FAB7EE001A9FED380A01213548C0
:10166000C9EE298A9FED359AF0EE410A04F0A2FAFC
:10167000B7EE001A9FED310A02212E48F0EE410A22
:1016800004F098FA9FED2D1A03212A48F0EE410A42
:10169000B0EE410A04F08EFA264804F093FAFFF700
:1016A0007FFC2748013D05F093FCD4F8843215F007
:1016B000FF051B8807EE903AF8EEE77A39EE279A95
:1016C000EFD189EE297A1F4878EE687AFCEEE77A46
:1016D00017EE903A9BB207EE903A78EEC78AF8EE92
:1016E000E77AB6EE007A77EEA87A67EE877A38EE78
:1016F000278AF8FE677AFCEEE77ABCEEC88A18EE15
:10170000103A99B2104B198017EE903A9AB20F4BDB
:101710001A8005F093FCFFF7C1FE3570BDEC048B19
:1017200070BD04F5597005F06FFD09E75006002003
:10173000C409002060060020CC0900200000000041
:10174000E408002045E201240600002004000020F7
:101750002DE9F041CA4D0021CA48CB4CCB4ECC4FAD
:101760002DED088B04F094F8284603F059FA002078
:10177000256005F0C5FCC34804F0FCF9B7EE001A7B
:101780000021C048C34DF0EE410AB0EE410A04F01A
:1017900011FAB7EE001A0121BA48F0EE410AB0EE94
:1017A000410A04F007FAB7EE001A0221B548F0EE3C
:1017B000410AB0EE410A04F0FDF9B7EE001A032128
:1017C000B048F0EE410AB0EE410A04F0F3F9AD483A
:1017D00004F0F8F9AB4803F009FFAF49A94886EDDA
:1017E000000A04F0C5F9AD4B002128681B88696028
:1017F00007EE103A3B8807EE903AB8EE477AF8EEDB
:10180000677A85ED027A85ED047AC5ED037AC5ED38
:10181000057A07F037FF03685A1E012A40F20A8151
:1018200001232846AB61FFF70CFEFFF795FB3B88D1
:1018300044F69042A3F5C8739BB293420CD9984BDF
:10184000012213E90300AA6183E80300A3F1100059
:10185000FFF7F7FDFFF780FB96ED000A2068B7EE73
:10186000C00A884D03F099F820689FED7F0B03F0C4
:10187000FFF8206800F551309FED7D0BF03000F04F
:10188000D7FD2068B2EE0E0B00F5523300F5513053
:1018900083ED320BF03000F003FE2068B0EE080B51
:1018A00000F5513000F5E07001F016FA2068B0EE56
:1018B000080B00F55130F03000F082FD23687949C3
:1018C000002003F55233C3E92E01284604F056F9EF
:1018D00005F5597005F098FC05F56870FEF743FEB4
:1018E00002280FD105F57270FEF73DFE022809D1DE
:1018F00005F55B7006F0B6FB95F88133834201D0A5
:10190000FFF7EAFD5F4804F039F9674805F07CFC11
:101910005C4804F057F901215A4804F05FF90221AC
:101920005848F0EE40AA04F059F903215548B0EEAA
:1019300040AA04F053F9B5EEC00AF1EE10FA7FDCCC
:101940000321504804F04AF9B5EEC00AF1EE10FA4E
:1019500000F38380DFED558A04214A4804F03EF904
:10196000534F05214748B0EE408A04F037F906216D
:101970004448B0EE409A04F031F93B78F0EE409ADA
:10198000012B00F0A780022B00F0D780A3BBDFED76
:10199000497A9FED4F7A9FED48BAAAEEA77A26685A
:1019A000F2EE04AA06F552333046B0EE6A0AB7EEFC
:1019B000C77AA8EE0B0A83ED2E7B83ED307BB7EE62
:1019C000C00AFEF7D1FF9FED3D0A30462AEE000A1D
:1019D000B7EEC00A03F018F99FED390A206829EE26
:1019E000800AB7EEC00A03F033F8E9EE0BAAB7EEAF
:1019F000EA0A206803F00EF9B7EEE80A314BDFF887
:101A0000C88020489FED1C7BB4EEC70BF1EE10FAA6
:101A1000CCBF012200221A7004F0BCF898F8003004
:101A20000646002840F0B480002B00F0B480FFF799
:101A3000ABFAB0E0D0E90101AB61C5E90401F4E61D
:101A4000F6EE008A03210F4804F0C8F8F4EEC08ACD
:101A5000F1EE10FA3FF774AF7EE70321094804F076
:101A6000BDF8F0EE408A77E70000000000000000BB
:101A7000000000000040AF409A9999999999B93FA8
:101A8000000000C0600600205C0600205406002014
:101A90000400002034060020D90E00240600002097
:101AA0004406002000407F40C409002000000000E0
:101AB0005806002000007A440000A04200007A4549
:101AC0000000204251060020520600200000E144A0
:101AD000000048435FED037A00201FED037A26687B
:101AE000AAEEA77A604906F55233C3E930013046C1
:101AF000B7EEC77A83ED2E7BDFED5C7A28EE278A7E
:101B0000B7EEC80AFEF730FF9FED590A30462AEEBD
:101B1000000AB7EEC00A03F077F89FED560A206876
:101B200029EE800AB7EEC00A02F092FF9FED520A3A
:101B300029EE000AB7EEC00A5BE7B3EE0E7ADFEDDE
:101B40004F7A2668AAEEA77ADFED4BAA06F5523344
:101B5000304628EE2A8AB7EEC80AB7EEC77A83ED78
:101B60002E7B83ED307BFEF7FFFEDFED457A3046BE
:101B70002AEE270AB7EEC00A03F046F829EEAA0AB1
:101B80002068B7EEC00A02F063FF29EE2A0AD1E707
:101B90000BB9FFF775FA95F8683388F8006073B1F0
:101BA00095F880337F2B04D1FFF76AFA95F86833F4
:101BB0002BB195F88033802B01D1FFF7E5F931483F
:101BC000FEF7D1FC01283BD123680020002103F55A
:101BD0005033C3E9F4012C48FEF7C5FC01283CD082
:101BE0002948FEF7C0FC00280CBF012302233B70EC
:101BF000264B197800297FF485AE07EE906A9FED99
:101C0000241A2448F8EE678AB8EEE77B9FED145B50
:101C1000B0EE680A87EE056BB7EEC68BF0EE480AA9
:101C200003F0C8FFF0EE480AB0EE680A9FED181AFC
:101C30000121184803F0BEFF164803F0C3FF61E618
:101C40001048FEF790FC236803F5503310B90020CC
:101C50001149BEE700201149BBE70023C7E700BFD9
:101C6000333333333333FB3F000069400000B44269
:101C700000409C45000048420000C84200803B45AF
:101C800000401C46000A0020280A002050060020C0
:101C900000000000600600200000E03F0000F03F70
:101CA0000B6803604B6843608B6883600023C1E965
:101CB00001330B60704738B504461546FEF71CFC2F
:101CC000294604F11800FFF7EBFF204638BD38B570
:101CD00004461546FEF710FC294604F11800FFF7EC
:101CE000DFFF204638BD08B518F076FDC00F08BDEF
:101CF0002DE9F0410446884617468D680E1D0120E7
:101D00004DB910B3D8F80C30B34211D125606660DC
:101D10002046BDE8F08105F110013846FFF7E3FFEA
:101D200000282E46D5E902320CBF15461D46E7E7CE
:101D3000304618F0B3FB0546394605F11000FFF7B1
:101D4000D2FF20B100232360E1E73546F4E7C4E980
:101D50000050DDE72DE9F04F002387B000F10409C2
:101D6000044603710D46836043611346CDE90212B8
:101D7000242202FB031AC0E90399AA4503D1204695
:101D800007B0BDE8F08F63693BB12769294607F1C9
:101D90001000FFF7A8FF002842D12A46214604A8D8
:101DA000FFF7A6FF059FA7B3049BA3BBB94532D09D
:101DB00007F110012846FFF796FF8046342018F0FF
:101DC00004FB00F11803064610300360D5E9001249
:101DD000FFF7D2FAD5E90612521A1FD01046019128
:101DE000009218F0F2FADDE9002100EB020BC6E9DF
:101DF0000A00C6F830B012B11BF09AF858464B46AC
:101E0000F0623A463146404618F04AFB63690133B6
:101E100063612435B1E74FF00108CFE71046E4E7EE
:101E2000002FC3D1F5E700002DE9F041ADF5047DA9
:101E30000123B8490A242BA82A93FEF75DFB02234D
:101E4000B54932A831932AADFEF756FB0323B349B7
:101E500039A8AB6327AEFEF74FFB0423B04940A877
:101E60006B65FEF749FB0523AE4947A82B67FEF7D4
:101E700043FB0623AC494EA8C5F88C30FEF73CFB6B
:101E80000723AA4955A8C5F8A830FEF735FB082353
:101E9000A7495CA8C5F8C430FEF72EFB0923A54965
:101EA00063A8C5F8E030FEF727FBA3496AA8C5F888
:101EB000FC40FEF721FB24ABA0480096CDE9065478
:101EC00070ACDDE90612FFF76DFA1C3C201D18F01E
:101ED00085FBAC42F9D19A4A00249A4984AF9748CD
:101EE00018F068FA984A07230CA8A2F11C010E9476
:101EF000CDE90C44FFF71EFA86492846FEF7FCFAA6
:101F00000CA930A8FFF7CCFE904A07230FA8A2F136
:101F10001C011194CDE90F44FFF70CFA7E4933A858
:101F2000FEF7EAFA0FA939A8FFF7BAFE884A072395
:101F300012A8A2F11C011494CDE91244FFF7FAF99A
:101F400076493CA8FEF7D8FA12A942A8FFF7A8FEE6
:101F5000804A052315A8A2F114011794CDE9154470
:101F6000FFF7E8F915AA6E4945A8FFF7A4FE7A4ADB
:101F7000052318A8A2F114011A94CDE91844FFF71B
:101F8000D9F918AA67494EA8FFF795FE734A0723A7
:101F90001BA8A2F11C011D94CDE91B44FFF7CAF94F
:101FA0001BAA614957A8FFF792FE6D4A07231EA896
:101FB000A2F11C012094CDE91E44FFF7BBF95B4957
:101FC00060A8FEF799FA1EA966A8FFF769FE654AA0
:101FD0000C2321A8A2F130012394CDE92144FFF77D
:101FE000A9F9534969A8FEF787FA21A96FA8FFF755
:101FF00057FE5D4A072324A8A2F11C012694CDE9CF
:102000002444FFF797F94B4972A8FEF775FA24A903
:1020100078A8FFF745FE01230BAA0AA93046B46051
:102020000A93C6E90044FFF785F9324642497BA886
:10203000FFF74DFE0A230895099305AB4B48009323
:1020400004ABDDE90812FFF785FE243F07F1180015
:10205000FFF748F9384618F0C1FAAF42F5D13046DB
:102060000024FFF73FF924A8FFF73CF921A8FFF768
:1020700039F91EA8FFF736F91BA8FFF733F918A89E
:10208000FFF730F915A8FFF72DF912A8FFF72AF985
:102090000FA8FFF727F90CA8FFF724F9284A3449BD
:1020A000324818F087F9334A07230CA8A2F11C0123
:1020B0000E94CDE90C44FFF73DF916493846FEF77A
:1020C0001BFA0CA907F11800FFF7EAFD2A4A0723BB
:1020D0000FA8A2F11C011194CDE90F44FFF72AF9D2
:1020E0000D4933A8FEF708FA0FA939A8FFF7D8FD64
:1020F000224A072312A8A2F11C011494CDE912442C
:10210000FFF718F905493CA8FEF7F6F912A942A80D
:1021100036E000BF56E201245CE201246AE20124B9
:1021200079E201248AE201249BE20124A2E2012453
:10213000ADE20124B7E20124BFE20124800A0020BD
:102140000000002049050024BCE40124A0E401248F
:1021500084E4012468E4012454E4012440E40124DB
:1021600024E4012408E40124D8E30124680A0020BF
:1021700025130024BCE30124BCE30124BCE30124B7
:10218000FFF78EFD5E4A052315A8A2F114011794EE
:10219000CDE91544FFF7CEF815AA5A4945A8FFF72F
:1021A0008AFD594A052318A8A2F114011A94CDE911
:1021B0001844FFF7BFF818AA54494EA8FFF77BFD53
:1021C000534A07231BA8A2F11C011D94CDE91B440F
:1021D000FFF7B0F81BAA4F4957A8FFF778FD4E4A02
:1021E00007231EA8A2F11C012094CDE91E44FFF78D
:1021F000A1F84A4960A8FEF77FF91EA966A8FFF773
:102200004FFD474A0C2321A8A2F130012394CDE9C8
:102210002144FFF78FF8434969A8FEF76DF921A91A
:102220006FA8FFF73DFD404A072324A8A2F11C0137
:102230002694CDE92444FFF77DF83C4972A8FEF7C7
:102240005BF924A978A8FFF72BFD012306AA05A9AD
:102250003046B4600593C6E90044FFF76BF8324698
:1022600033497BA8FFF733FD0A2384AC0A970B930D
:1022700004AB3048009303ABDDE90A12FFF76AFDB7
:10228000243C04F11800FFF72DF8204618F0A6F9B9
:102290002AAB9C42F4D127A8274CFFF723F824A8A7
:1022A000FFF720F821A8FFF71DF81EA8FFF71AF87E
:1022B0001BA8FFF717F818A8FFF714F815A8FFF7E1
:1022C00011F812A8FFF70EF80FA8FFF70BF80CA8EB
:1022D000FFF708F8194A1A49164818F06BF8204613
:1022E000FEF751F9174B002200211C6059609A60DB
:1022F000DA601A615A6199610DF5047DBDE8F081DB
:10230000A0E3012479E201248CE301248AE2012480
:10231000BCE301249BE20124BCE30124A2E20124EA
:1023200078E30124ADE2012448E30124B7E201246B
:10233000BFE20124500A00206006002000000020B7
:102340002513002434060020FFF76EBD19B9D0E92B
:102350000023C0E92E2300230022C0E91E234FF4EE
:102360008073A0F8C830704790ED0A6B90ED087B41
:10237000002337EE067B80F8C93090ED0C6B37EE0A
:10238000067B90ED226B37EE067B80ED1E7B70475F
:1023900090ED0A6B90ED087B37EE067B90ED0C6BB1
:1023A00080ED187B37EE067B90ED0E6B80ED1A7B8F
:1023B00036EE076B80ED1C6B7047000000000000DC
:1023C000B5EEC00B10B5F1EE10FA04462DED028B00
:1023D000B7EE008B22DD90ED307B9FED136B90ED1F
:1023E000205B80ED080B27EE067B90ED246B27EE3B
:1023F000007BBFEE000B27EE067B87EE056B80EEC1
:10240000060B18F001FA38EE408B204684ED288B3D
:10241000BDEC028BBDE81040FFF7BABF00220023DD
:10242000C0E90823F1E700BFFCA9F1D24D62503F9B
:10243000B5EEC00B10B5F1EE10FA04462DED028B8F
:10244000B7EE008B22DD90ED307B9FED136B90EDAE
:10245000205B80ED0C0B27EE067B90ED246B27EEC6
:10246000007BBFEE000B27EE067B87EE056B80EE50
:10247000060B18F0C9F938EE408B204684ED2A8B04
:10248000BDEC028BBDE81040FFF782BF00220023A5
:10249000C0E90C23F1E700BFFCA9F1D24D62503F27
:1024A000B5EEC00B10B5F1EE10FA04462DED028B1F
:1024B000B7EE008B22DD90ED307B9FED136B90ED3E
:1024C000205B80ED0E0B27EE067B90ED246B27EE54
:1024D000007BBFEE000B27EE067B87EE056B80EEE0
:1024E000060B18F091F938EE408B204684ED2C8BCA
:1024F000BDEC028BBDE81040FFF74ABF002200236D
:10250000C0E90E23F1E700BFFCA9F1D24D62503FB4
:10251000B5EEC00B10B5F1EE10FA044601DD80ED0A
:10252000300B94ED207B9FED0E6B94ED305B94EDC2
:10253000080B27EE067B204687EE056B84ED226BA9
:10254000FFF73EFF204694ED0C0BFFF771FF20468E
:1025500094ED0E0BBDE81040FFF7A2BFAFF3008073
:102560000000000000408F40B5EEC00B10B5F1EE4A
:1025700010FA044601DD80ED240B94ED080B204693
:10258000FFF71EFF204694ED0C0BFFF751FF20468E
:1025900094ED0E0BBDE81040FFF782BF0000000075
:1025A00000222F4B2DE9D0434FF00008DFF8B49004
:1025B0000026002704462DED028BC0E90223C0E966
:1025C0001023C0E91223C0E91423C0E91623C0E98F
:1025D0002023C0E92423C0E92623C0E9282318A327
:1025E000D3E900239FED180B9FED198BC0E9302331
:1025F000C0E9048901230FF26009D9E9008980ED5F
:102600000C0B80ED0E8BA0F8C830C0E90067C0E964
:102610000667C0E90867C0E90A67C0E91E67C0E944
:102620002289C0E92E67FFF703FFB0EE480B204672
:10263000FFF736FF2046BDEC028BBDE8D08300BF1C
:10264000000000008088E5409A9999999999B93FCE
:102650007B14AE47E17A843FCE05A6F24E38973F11
:102660000000F03F0000E03F38B52DED028BB0EEEA
:10267000408B05460C4618F0BBFE85ED000BB0EE16
:10268000480B18F05DFEBDEC028B84ED000B38BDED
:102690009FEDE76B90ED127B836E27EE067B013B8F
:1026A00090ED186B10B504462DED068B87EE069B5A
:1026B00084B0B7EE008B072B00F2C681DFE813F081
:1026C00008001E0053006A009900D40007014C0165
:1026D000B1EE490B18F098F80022002384ED060BA8
:1026E00038EE400BC4E9082384ED000BC4E9022353
:1026F000C4E9042304B0BDEC068B10BDB0EE490B59
:1027000002A96846FFF7B0FF9FEDCB7B94ED140B59
:1027100020EE070B18F078F830EE000B9DED007BF3
:1027200087EE006B36EE087B36EE486B88EE075B73
:102730009DED027B37EE074B38EE477B26EE056BAF
:1027400024EE054B27EE057B84ED086BB6EE006B9F
:1027500084ED064B84ED027B27EE067B84ED007B47
:1027600084ED047BC6E7B1EE490B18F04DF8B6EEE8
:10277000007B0022002384ED060B30EE080BC4E939
:10278000082320EE070B84ED000BB1EE400B84ED27
:10279000020BADE7B0EE490B02A96846FFF764FFF4
:1027A0009FEDA57B94ED140B20EE070B18F02CF891
:1027B00030EE000B9DED007B87EE006B36EE087B64
:1027C00036EE486B88EE075B9DED027B37EE074BDC
:1027D00037EE087B26EE056B24EE054B27EE457B96
:1027E00084ED086B84ED064BBEEE006B84ED027B3E
:1027F000B2E7B0EE490B02A96846FFF735FF9FED3F
:10280000907B94ED160B9DED00AB20EE070B20EEB8
:10281000090B80EE0A0B18F047FA00220023B0EEF5
:10282000487BC4E90223AAEE007B88EE076B9DED8E
:10283000027B37EE077B27EE067B84ED067BBFEE3F
:10284000007BAAEE007B27EE067B84ED087BB6EECC
:10285000007B2AEE07AB2AEE06AB84ED00ABB1EEAF
:102860004AAB84ED04AB45E7B0EE490B02A96846DC
:10287000FFF7FAFE9FED727B94ED160B9DED00AB1A
:1028800020EE070B20EE090B80EE0A0B18F00CFA75
:10289000B0EE487BBFEE006BAAEE007BAAEE006BA9
:1028A00088EE075B9DED027B37EE077B27EE057B0D
:1028B00026EE056B84ED067BB1EE477B84ED086B5D
:1028C00084ED005B84ED027B84ED045B12E702A9DA
:1028D0006846B0EE490BFFF7C7FE9FED597B94EDBC
:1028E000160B9DED00AB20EE070B20EE090B80EEE2
:1028F0000A0B18F0D9F92AEE00AB9FED4F7B94ED4F
:10290000140B20EE070B17F07FFF8AEE006B36EEFC
:10291000087B36EE486B88EE075B9DED027B37EE59
:10292000077B26EE056B27EE057B84ED086BB0EE8A
:10293000486BAAEE408BAAEE006B84ED067B28EE76
:10294000058BB1EE477B26EE056B84ED027B84EDB3
:10295000048B84ED006BCDE602A96846B0EE490B0E
:10296000FFF782FEB6EE007B94ED140B20EE070B12
:102970009FED317B20EE070B17F046FFB0EE409B3A
:102980009FED2F7B94ED160B20EE070B18F08CF9C2
:10299000B0EE40ABB0EE490B18F0A6FC39EE081BC8
:1029A0003AEE0AAB9DED022B88EE0A7BB0EE416B4E
:1029B0009DED003B80EE074B39EE487BA7EE026BA6
:1029C000B0EE460BA3EE040BA3EE446B88EE005B67
:1029D000B0EE470BA1EE020B30EE000B26EE456B7E
:1029E00020EE050B84ED086BB0EE416B84ED060B19
:1029F000A7EE426BA1EE427BB0EE460BA3EE446B1A
:102A0000A3EE040B26EE096B20EE090B26EE056BF8
:102A100020EE050B84ED046B84ED000B39EE090B01
:102A200027EE007B27EE057B84ED027B62E600BF8C
:102A3000182D4454FB2119402288885F1C79BD3F22
:102A4000EF39FAFE422ED63F0022002380ED008BA4
:102A5000C0E90223C0E90423C0E90623C0E9082332
:102A600048E600BFB5EEC00BF1EE10FA01DD80EDD7
:102A7000180BFFF70DBE8166FFF70ABE80ED120B43
:102A8000FFF706BE80ED140BFFF702BE80ED160BBC
:102A9000FFF7FEBD00220023C0E90A23C0E90C2392
:102AA000C0E90E23C0E910237047000000000000B9
:102AB0000022114B10B5C0E9122300220023044666
:102AC000C0E9142308A3D3E90023C0E9162308A30F
:102AD000D3E90023C0E9182300238366FFF7D8FD5C
:102AE0002046FFF7D7FF10BDA606C3804566FE3F10
:102AF000000000008088E54000408F40B5EEC00B2C
:102B0000F1EE10FA01DD80ED0C0B90ED0C7BB7EED1
:102B1000005B85EE076B90ED007B90ED045B27EE8C
:102B2000057B27EE067B80ED0E6B80ED067B704704
:102B3000006C08B101F0F5BD7047406C08B101F0C0
:102B4000F0BD7047000000000022154B042110B5B5
:102B5000C0E900230022134B0446C0E904230022ED
:102B600000239FED0D0BC0E90223C0E90A230023D7
:102B700080ED0C0BC0E91033FFF7C0FFFFF7D8FF63
:102B800020460321FFF7D9FF2046D4E90A23C4E9F0
:102B9000022310BDAFF30080000000008088E540F4
:102BA0000000904000807B400164704741647047A2
:102BB000D0E90A23C0E90223704700220023C0E9BC
:102BC0000223C0E900237047704700220023C0E9B8
:102BD0000C2370470000000010B590ED0A0B2DED9E
:102BE0000A8B9FED1BCB90ED10BBBFEE00AB0446F4
:102BF00020EE0C0BB7EE008B20EE0B0B8AEE000BD9
:102C000017F002FEB0EE409B84ED000B94ED080B34
:102C1000B5EEC00BF1EE10FA17DD20EE0C0B20EE36
:102C20000B0B8AEE000B17F0EFFD38EE400B94F81B
:102C3000483084ED020B0BB138EE498B88EE097BEE
:102C4000BDEC0A8B84ED067B10BDB0EE480BEEE7C1
:102C5000FCA9F1D24D62503F00220023D0B5C0E95B
:102C60000423C0E90823C0E90C230EA3D3E9002301
:102C700000260B4F0446C0E9102307A3D3E9002325
:102C8000C0E90A67C0E90E23002380F84830FFF747
:102C9000A3FF2046D0BD00BFCE05A6F24E38973F19
:102CA00000006940000000008088E540000000004E
:102CB000B5EEC00BF1EE10FA09DD9FED056B80ED6E
:102CC000100B86EE007B80ED0E7BFFF785BF704713
:102CD0000000000000408F40B5EEC00BF1EE10FA8E
:102CE00003DB80ED080BFFF777BF704700000000A3
:102CF0009FED057BB4EEC70BF1EE10FA03DD80ED1E
:102D00000A0BFFF769BF7047FCA9F1D24D62503F33
:102D100080F84810FFF760BF0128F8B50546144653
:102D20002DED068B48601DDD4610B6EE00AB04F1BC
:102D3000080707EE906AB8EEE70B9FED197B87EE68
:102D4000009B20EE090B18F0FBFA04EBC60384EDA0
:102D5000000B20EE0A0B04EBC504012583ED000BEC
:102D6000AE4202D1BDEC068BF8BD07EE905A01359C
:102D7000B8EEE78B28EE098BB0EE480B18F0E0FABE
:102D800020EE0A0BA7EC020BB0EE480B18F030FB5C
:102D900020EE0A0B24ED020BE2E700BFAFF3008048
:102DA000182D4454FB21E93F2DE9F74F002301245E
:102DB0000B60E30083420ADB4FEA440516D08C46E1
:102DC0000127A742C0F2998003B0BDE8F08F401000
:102DD000002301EB8406A34201DB6400E9E751F81C
:102DE00023500133054446F8045BF4E74FEA840EB0
:102DF000AC460026A642E7DA7300002701935EE0A6
:102E000003EB470351F8270001370093019B184457
:102E1000009B02EBC009704402EBC30B2B449BEDFB
:102E2000006B9BED027B99ED004B99ED025B8BED06
:102E3000004B8BED025B89ED006B89ED027B02EBB1
:102E4000C30B2B4402EBC009401B9BED006B9BEDB9
:102E5000027B99ED004B99ED025B8BED004B8BED06
:102E6000025B89ED006B89ED027B02EBC30B2B4407
:102E700002EBC009704402EBC3089BED006B9BEDB5
:102E8000027B99ED025B99ED004B8BED025B8BEDC4
:102E9000004B89ED006B89ED027B02EBC00998EDD8
:102EA000007B99ED026B99ED005BD8E902AB88EDF0
:102EB000005B88ED026B89ED007BC9E902ABB7428C
:102EC00051F826309CD1634401360CF1020C02EB20
:102ED000C3082B4402EBC30098ED007B90ED005B30
:102EE00090ED026BD8E902AB88ED005B88ED026BD8
:102EF00080ED007BC0E902AB7CE7DCF804300CF12C
:102F0000040E4FEA4708894602EBC3062B4402EB46
:102F1000C30359F8040B10361033404402EBC00BC6
:102F2000284416ED046B16ED027B9BED004B9BEDE8
:102F3000025B02EBC00A0CF1040006ED044B06ED47
:102F4000025B8BED006B8BED027B13ED046B13EDDD
:102F5000027B9AED004B9AED025B484503ED044B72
:102F600003ED025B8AED006B8AED027BD1D1013764
:102F7000F44626E700000000012302282DE9F0476F
:102F800005468A4614462DED068B08604B604ADDE7
:102F900040FA03F70022284B07EE907AB8EEE70BD1
:102FA0009FED237BC4E900230023002287EE00ABC2
:102FB000C4E9022320EE0A0B18F0C2F9022F04EB39
:102FC000C70383ED000B83ED020B2CDDA14604EB60
:102FD000C508022607EE906A023609F11009A8F129
:102FE0001008B8EEE78B28EE0A8BB0EE480B18F00D
:102FF000A7F9B0EE409BB0EE480B18F0F9F9B742D4
:1030000089ED009B89ED020B88ED000B88ED029B9A
:10301000E0DC22460AF108012846BDEC068BBDE83B
:10302000F047FFF7C1BEBDEC068BBDE8F08700BFDF
:10303000182D4454FB21E93F0000F03F91ED044B73
:1030400091ED006B30B591ED065B2DED108B91EDA0
:10305000027B91ED0C9B36EE042B02F1100336EE51
:10306000446B02F1200437EE053B803137EE457B9F
:1030700011ED184B11ED121B11ED165B34EE098B9F
:1030800034EE494B35EE010B35EE415B32EE081B59
:1030900032EE482B01ED201B33EE001B33EE403B9C
:1030A00001ED182B01ED163B36EE453B36EE056B78
:1030B00011ED0E2B01ED1C3B01ED146B37EE043BC3
:1030C00037EE447B11ED0A6B11ED0C5B01ED127BC9
:1030D00032EE069B32EE462B11ED107B11ED086BA4
:1030E00011ED04BB37EE050B37EE457B36EE0B8B4F
:1030F00036EE4BBB01ED1E1B11ED02AB11ED061BB5
:1031000030EE086B30EE480B31EE0A4B31EE4A1BC5
:1031100001ED1A3B93ED003B01ED106B39EE046BB2
:1031200034EE494B01ED0E6B01ED084B37EE416B70
:1031300037EE017B01ED060B32EE0B0B3BEE422B23
:1031400036EE404B32EE475B36EE006B37EE027BDD
:1031500024EE034B26EE036B25EE035B27EE037B89
:1031600001ED0C4B01ED0A6B01ED045B01ED027BFF
:103170009D1AA84202DCBDEC108B30BD1D461033F9
:1031800095ED007B2546203495ED001B13ED023BA9
:1031900014ED064BB0EE41EB0D4633EE036B803180
:1031A000B0EE44DB95ED005BA6EE44EB96EE01DB62
:1031B00011ED1C2B11ED1E6B11ED18AB11ED1ABBAF
:1031C00011ED14CB35EE029B36EE0B8B35EE425BE8
:1031D00036EE4BBB3AEE0C6B3AEE4CCB11ED16FBD8
:1031E00011ED122B39EE06AB39EE466B3FEE022B9A
:1031F00001ED20AB38EE02AB38EE422B11ED120B95
:1032000022EE438B3FEE40FB01ED1EABA7EE068B9B
:1032100023EE066B11ED08AB11ED020BA7EE026B6E
:103220003BEE0C2B3BEE4CBB01ED188B35EE4F8B80
:1032300035EE0F5B01ED166B22EE446B24EE084B6E
:10324000A1EE086BA1EE024B11ED04CB01ED1C6B5E
:103250002BEE4D6B2DEE05DBAEEE056BAEEE0BDB14
:1032600001ED1A4B01ED146B37EE076B11ED0C2BD2
:1032700001ED12DB14ED041B14ED025B11ED0E4B9E
:10328000B0EE41EBB0EE45DBA6EE45EB96EE01DB92
:1032900011ED0ABB11ED106B11ED06FB34EE0B8B3B
:1032A00036EE029B34EE4BBB36EE426B3AEE0C2B05
:1032B0003AEE4CCB11ED024B39EE02AB39EE422B1C
:1032C0003FEE044B3FEE40FB01ED10AB38EE04AB9C
:1032D00038EE444B01ED0EAB24EE478B27EE027B1C
:1032E000A3EE428BA3EE447B36EE4F3B36EE0F6BE4
:1032F00001ED088B01ED067B3BEE0C7B3BEE4CBBFE
:1033000027EE454B25EE035BA1EE034BA1EE075BD9
:103310002BEE4D7B2DEE06DBAEEE067BAEEE0BDB31
:1033200001ED0C4B01ED0A5B01ED047B01ED02DBCD
:103330001EE72DE9F04F02EBC104182602EB01173E
:103340004FF0000E02EBC1052DED108B85B00194FE
:1033500002EB011403908800029406FB0124A446AA
:10336000009414468E4520DB01EB410400EB010E76
:1033700000EB41058046044402EBC00702EBCE0C93
:1033800002EBC50502EBC40493ED044BC64558DCC3
:1033900000EB400599464400039EB442C0F2AD8064
:1033A00005B0BDEC108BBDE8F08F26460EF1020E85
:1033B000103496ED006B2E46103596ED004B3E46D0
:1033C000103736EE042B36EE446B96ED004B664616
:1033D0000CF1100C96ED009B15ED025B14ED027BD9
:1033E0001CED021B34EE098B37EE053B37EE457BB7
:1033F00034EE494B17ED025B35EE010B35EE415BC8
:1034000032EE081B32EE482B04ED041B33EE001B9A
:1034100033EE403B04ED021B07ED023B36EE453B2D
:1034200036EE056B07ED042B05ED043B37EE043B50
:1034300037EE447B05ED023B0CED046B0CED027B9B
:1034400090E73E4608F10208103796ED007B66468D
:103450000CF1100C17ED022B1CED026B96ED005BCE
:103460002E46103532EE069B32EE462B37EE050B1C
:1034700037EE457B96ED006B2646103496ED00BB8B
:1034800015ED021B14ED02AB36EE0B8B36EE4BBB8B
:1034900031EE0A3B30EE086B31EE4A1B30EE480B42
:1034A00007ED046B39EE036B33EE493B07ED026B1E
:1034B00005ED020B37EE416B32EE0B0B37EE017B65
:1034C0003BEE422B05ED043B32EE475B36EE403BD4
:1034D00037EE027B36EE006B23EE043B26EE046BE8
:1034E00025EE045B27EE047B0CED043B0CED026B38
:1034F00004ED045B04ED027B48E793ED081B93EDBC
:103500000A0B99ED064BB0EE41EB019EB0EE40DBAD
:1035100002EBC40734EE047B06EBC40C029EA24609
:10352000A7EE40EB06EBC40E009E06EBC40897EE38
:1035300001DB99ED045B04EB010BDA4525DB35EE8D
:10354000057B019EAA4602EBC50706EBC50C029E51
:1035500093ED0C1B93ED0E0B06EBC50E009EB0EE2B
:1035600041EBB0EE40DB06EBC508A7EE40EB97EE73
:1035700001DB05EB010BDA456DDB04EB4004203386
:1035800005EB400509F1100906E73E460AF1020A7B
:10359000103796ED003B66460CF1100C96ED006B73
:1035A00076460EF1100E96ED00AB464608F1100877
:1035B00033EE069B33EE463B96ED00CB17ED027BD8
:1035C0001CED02BB1EED02FB3AEE0C6B37EE0B8BD3
:1035D00037EE4BBB3AEE4CCB39EE06AB39EE466BD1
:1035E00018ED027B07ED04AB3FEE072B3FEE477B68
:1035F00038EE02AB38EE422B07ED02AB22EE448BE5
:10360000A5EE068B24EE066BA5EE026B0EED048B89
:103610003BEE0C8B3BEE4CBB28EE402B0EED026BD1
:1036200033EE476B33EE077BA1EE062B20EE066BE5
:10363000A1EE086B0CED042B0CED026B2BEE4D6B29
:10364000AEEE076B2DEE077BAEEE0B7B08ED046B49
:1036500008ED027B6FE73E460AF1020A103796ED4D
:10366000003B66460CF1100C96ED006B76460EF1B1
:10367000100E96ED00AB464608F1100833EE069B9F
:1036800033EE463B96ED00CB17ED027B1CED02BB03
:103690001EED02FB3AEE0C6B37EE0B8B37EE4BBB9D
:1036A0003AEE4CCB39EE06AB39EE466B18ED027BA9
:1036B00007ED04AB3FEE072B3FEE477B38EE02AB46
:1036C00038EE422B07ED02AB22EE458BA4EE468B83
:1036D00025EE066BA4EE426B0EED048B3BEE0C8BDD
:1036E0003BEE4CBB28EE402B0EED026B33EE476BEE
:1036F00033EE077BA1EE062B20EE066BA1EE086BE6
:103700000CED042B0CED026B2BEE4D6BAEEE076B4C
:103710002DEE077BAEEE0B7B08ED046B08ED027B14
:1037200027E70828F8B505460C4617462DED048B0B
:1037300036DDFFF783FC0821B5EB810F4FEA8106E8
:1037400027DCB54222462ED004EBC103002088427C
:1037500033DA14460230103294ED007B1C461033ED
:1037600094ED004B12ED023B13ED026B37EE045B60
:1037700037EE447B33EE466B02ED045B13ED025BE8
:1037800035EE035B02ED025B03ED047B03ED026BA0
:10379000DDE73B4622462846FFF7CBFD3146CBE727
:1037A00008260221CDE7182304EBC100002504EB15
:1037B000011403FB01238D4202DBBDEC048BF8BD39
:1037C00016460235103296ED006B0646103096ED27
:1037D000004B2646103436EE042B36EE446B96ED45
:1037E000004B1E46103396ED009B10ED025B12ED70
:1037F000027B13ED021B34EE098B37EE053B37EEEF
:10380000457B34EE494B14ED025B35EE010B35EE92
:10381000415B32EE081B32EE482B02ED041B33EE07
:10382000001B33EE403B02ED021B04ED023B36EE83
:10383000453B36EE056B04ED042B00ED043B37EE03
:10384000043B37EE447B00ED023B03ED046B03EDDC
:10385000027BB0E70828F8B505460C4617462DED63
:10386000048B38DDFFF7EAFB0821B5EB810F4FEA47
:10387000810629DCB542224630D004EBC10300208A
:10388000884235DA14460230103294ED006B1C4643
:10389000103394ED004B12ED027B13ED025B36EE1C
:1038A000043B36EE446B35EE475BB1EE477B02EDF1
:1038B000043B13ED023B37EE437B02ED027B03ED4D
:1038C000046B03ED025BDBE73B4622462846FFF72D
:1038D00030FD3146C9E708260221CBE7182304EB67
:1038E000C100002504EB011403FB01238D4202DB20
:1038F000BDEC048BF8BD16460235103296ED006B18
:103900000646103096ED003B2646103412ED024B71
:1039100036EE032B36EE436BB1EE445B96ED003B87
:103920001E46103396ED009B10ED027B13ED021B3B
:1039300033EE098B35EE475B37EE447B33EE493B84
:1039400014ED024B34EE010B34EE414B32EE081B0A
:1039500032EE482B02ED041B35EE401B35EE005BCA
:1039600002ED021B04ED025B36EE445B36EE046BA7
:1039700004ED042B00ED045B37EE435B37EE037B75
:1039800000ED025B03ED046B03ED027BAEE770B567
:1039900046106FF00705540003EBC20294FBF6F4E7
:1039A0006C4301F1100501EBC001022022441B1BF6
:1039B000B04200DB70BDAC46B6EE002B10350230D5
:1039C000103992ED007B9CED004B91ED001B15ED45
:1039D000025B91ED023B32EE472B224434EE411B59
:1039E00035EE033B93ED007B1B1B23EE476B27EE6D
:1039F000017BA2EE016BA2EE037B34EE464B05ED9C
:103A0000044B35EE475B05ED025B91ED005B35EE57
:103A1000065B91ED026B81ED005B36EE476B81ED4D
:103A2000026BC5E7F0B545106FF00706540002279A
:103A300003EBC20201EBC00094FBF5F491ED027BB5
:103A4000744301F11006B1EE477B22441B1B81ED4C
:103A5000027BAF4209DB013501EBC50191ED007B33
:103A6000B1EE477B81ED007BF0BDB446B6EE002B96
:103A700010360237103816ED025B90ED023B92EDE6
:103A8000007B93ED001B35EE033B224432EE472BC7
:103A90001B1B9CED004B90ED007B21EE036B34EE85
:103AA000477BA2EE076B27EE417BA2EE037B34EE51
:103AB000464B06ED044B37EE455B06ED025B90EDA1
:103AC000005B35EE065B90ED026B80ED005B37EE40
:103AD000467B80ED027BBCE72DE9F047D3F8008000
:103AE00005468A461446B0EB880F1F46089E06DD41
:103AF0004FEAA008324619464046FFF73DFAD7F88C
:103B00000490B5EB890F07DD4FEAA509394606EBAE
:103B1000C8024846FFF700F9BAF1000F28DB042D70
:103B20001FDD224607F108012846FFF73DF932461E
:103B300021462846FFF7F5FD4A4606EBC803214615
:103B40002846FFF724FF94ED007B94ED026B37EEDF
:103B5000065B37EE467B84ED005B84ED027BBDE8BF
:103B6000F087F0D1324621462846FFF7DAFDEAE732
:103B700094ED006B94ED027BB6EE005B042D36EE07
:103B8000477B27EE057B36EE476B84ED027B84EDA9
:103B9000006B13DD06EBC8034A4621462846FFF7B3
:103BA00041FF224607F108012846FFF7FDF832469B
:103BB00021462846BDE8F047FFF74CBECFD132463C
:103BC00021462846BDE8F047FFF7ABBDC36810B5F6
:103BD00004462DED028BB7EE008B23B983683BB111
:103BE000B0EE487B0AE0012B0DD18368012BF7D1A1
:103BF000D4ED007AB8EEE76B88EE067BBDEC028B65
:103C000084ED047B10BD022BEAD1D0ED007AB8EE32
:103C1000E70B17F069FB88EE007BEFE70000000080
:103C20000129F8B5044603DD01235B00994200D267
:103C3000F8BDFAD123688B42FAD007EE901AB6EE9F
:103C4000000B2160B8EEE77B37EE000B16F028FF83
:103C500020469FED377B20EE070BBBFE400BBDEEF1
:103C6000C00B84ED010AFFF7B1FFA06908B116F09F
:103C7000A8FB20684300B3F1805F34BF00014FF020
:103C8000FF3016F0B3FBA061E06908B116F099FBB4
:103C9000D4ED007AB8EEE70B17F026FBB1EE007B0F
:103CA0006FF0604330EE070BBAFE400BFDEEC07BB9
:103CB00017EE900A984234BF80004FF0FF3016F0A4
:103CC00095FB0023256AE06103609DB155F8043C33
:103CD00005EB0315236AAB4204D0103D2846FEF7DE
:103CE00073FFF7E755F8041CA5F108000901083136
:103CF00016F069FB2568B5F1006F36BF28014FF05B
:103D0000FF30083016F072FB102300F10806C0E9FE
:103D100000353746013D002D01DA266288E7384636
:103D2000013D1037FEF749FFF5E700BFAFF3008014
:103D3000FE822B654715F73FD0B5002301220026F0
:103D4000084F04468360C2604FF480710362C0E98B
:103D50000033C0E90467C0E90633FFF761FF20467E
:103D6000D0BD00BF0000F03F8368012B73B505464E
:103D70000C46164603D001238360FFF727FFB7EEFA
:103D8000007B28683246002395ED046BB4EE476B48
:103D9000F1EE10FA14D1834214DA0133B4EC027B51
:103DA00037EE077BA2EC027BF5E7B4EC027B95EDE6
:103DB000046B013337EE077B26EE076BA2EC026B38
:103DC0008342F2DB06F118020323834209DBAB696D
:103DD00032464FF0FF310093EB69FFF77DFE02B0F2
:103DE00070BD11461032023391ED007BB1EE477B7E
:103DF00002ED047BE9E7FFF7B7BF83682DE9734362
:103E000005460E4614461BB100238360FFF7DEFE15
:103E1000B7EE007B28682246002395ED046BB4EED4
:103E2000476BF1EE10FA10D1834210DA0133F6E855
:103E30000289E2E80289F7E7B6EC026B95ED047BB4
:103E4000013327EE067BA2EC027B8342F4DBAB69F5
:103E50002246012118340093EB69FFF73DFE2A68E2
:103E600003239A4202DC02B0BDE87083214610347D
:103E7000023391ED007BB1EE477B04ED047BF0E76C
:103E8000FFF7BBBF0000000000B52DED108B9FEDCC
:103E900050DBB0EE42EB85B0B7EE009B20EE0DCBD1
:103EA00021EE0DDBB5EE40DBF1EE10FAB5EE40CBC6
:103EB00013D1F1EE10FA00F085802CEE02EBBFEE8C
:103EC000000B80EE0E0B16F09FFC39EE407B89EE66
:103ED000070B05B0BDEC108B00BDF1EE10FA2DEE16
:103EE000028BBFEE00AB02D18AEE080BEBE72CEEA3
:103EF000020B8AEE000B16F087FC8DED000B8AEEAC
:103F0000080B16F081FCB4EE4DCBB0EE40BB39EEA1
:103F100040FBF1EE10FAB1EE40AB9DED007B10D10D
:103F2000B0EE481BB0EE4A0B16F0EEFE38EE098BF1
:103F300028EE0F8B28EE0F8B28EE008B89EE080BF6
:103F4000C7E739EE476B8DEE0C0BB1EE478B8DED6D
:103F5000026B8DED007B16F0A3FD89EE0D5B89EE03
:103F60000C4B9DED007B34EE454B37EE4B5B3BEE4F
:103F700047BB80EE04CB89EE05DB2CEE0ECB2BEE9F
:103F80000DBBB0EE4C1B2BEE0A0B16F0BDFEB0EED7
:103F90004C1BB0EE40EB2BEE080B16F0B5FE28EEF6
:103FA0000D8B2AEE0DAB28EE0F8B2AEE0FAB9DED9D
:103FB000026B28EE068B2AEE06AB20EE488BAEEEA7
:103FC0000A8BBBE7B0EE490B83E700BFAFF300807D
:103FD000FCA9F1D24D62503F90ED067B10B5B5EED5
:103FE000C07B0446F1EE10FA10DD90ED040B9FED5E
:103FF0000A6B20EE060B20EE070BBFEE007B87EE70
:10400000000B16F001FC84ED000B10BD9FED040BBE
:10401000F9E700BFAFF30080FCA9F1D24D62503F39
:1040200000000000000000000AA3D3E9002310B53F
:10403000C0E904230022064B0446C0E906230022FF
:104040000023C0E90223FFF7C7FF204610BD00BFD1
:1040500000002440000000008088E540B5EEC00B61
:10406000F1EE10FA03DD80ED040BFFF7B5BF7047EA
:10407000B5EEC00BF1EE10FA0ADB90ED067BB4EE64
:10408000407BF1EE10FA03D080ED060BFFF7A4BFE2
:104090007047802907EE103A009B28BF4021802AF4
:1040A000B8EEC77B23EAE37328BF402201600361B7
:1040B000426080ED027B70477047BBFE407BFDEEA7
:1040C000C76B30EE470BB6EE007B16EE900AB4EEEF
:1040D000C70BF1EE10FA00DB0130704742F220020C
:1040E0000021183018F08BBE00F50050024A002164
:1040F000183018F084BE00BF80810100000000006D
:1041000070B500F5D035044605F5CC70FFF714FE08
:104110004FF4806105F5CC7017A3D3E90023C4E9FF
:10412000042300230022A360114BC4E900230CA345
:10413000D3E90023C5E970230BA3D3E90023C5E924
:10414000722300220B4BC5E97423FFF769FD20465B
:10415000FFF7C4FF2046FFF7C7FF204670BD00BF32
:104160009AED5120FD7E51407B14AE47E17A11401B
:104170000000E03F00806640000000008088E540CD
:104180002DE9F84F054618300023DFF87C9105F53E
:1041900000525B4F0146183214462DED048BC9F8CE
:1041A00000303B60904233D113B14FF480633B60E9
:1041B00005F5005205F58043DFF8488105F5D0305C
:1041C000012400F5CC70D2E906AB9FED498BC3E921
:1041D00006ABD2E908AB05F50052C3E908ABD2E95A
:1041E0000AAB05F58043C3E90AABD2E90CAB424602
:1041F000C3E90CABFFF744FE88ED008B88ED028B22
:104200000B2CC9F8004009DDBDEC048BBDE8F88F2C
:10421000F0E802AB0123E4E802ABC3E707EE904A03
:10422000B0EE000B9FED349BB8EEE71B16F06CFD73
:10423000631E89EE007B01EE103AB0EE000BB8EE83
:10424000C11BFDEEC77B17EE90AA16F05DFD89EE4F
:10425000007B002108EBCA005346C7F800A0FDEE22
:10426000C77B17EE902A9A423CDC31B1A2EB0A03DD
:104270009245C8BF002353443B6042F2200A42F2F9
:10428000180B05F5D0301F490AFB04B200F5CC70BD
:104290002A44FFF7B0FDD9F800400AFB045304FBA1
:1042A0000AAA01349B4403F58042AA44DBE90001D9
:1042B000C2E90601DAE9000103F58042C2E908011A
:1042C00003F5005103F580422831D1E90001C2E92C
:1042D0000A0103F5804203F50053D3E90C01C2E95A
:1042E0000C018DE701330121A0EC028BBBE700BF7D
:1042F00000000000000000000000000000009040EE
:10430000980A0020A00A00209C0A0020000000005B
:1043100070B5054600F11806002407EE904A0134F6
:104320009FED0B6BB8EEE77B9FED0B0B27EE067B4B
:1043300027EE000B17F05CF8B4F5806FA6EC020BCB
:10434000EBD12846BDE87040FFF71ABFAFF30080FD
:10435000182D4454FB211940000000000000503F7C
:1043600000F11802002307EE903A0433B8EEE77B21
:10437000B3F5806F9FED146B27EE067BA2EC027BFA
:10438000F1D100F6180207EE903A0433B8EEE75B7D
:10439000B3F5406FB0EE007BA5EE467BA2EC027B4E
:1043A000F1D100F5C052183207EE903A0433B8EE5E
:1043B000E75BB3F5805FB9EE007BA5EE067BA2EC70
:1043C000027BF1D1FFF7DCBE000000000000503F8F
:1043D00090ED000B9FED147BF8B520EE070B00F17C
:1043E00018040546FFF769FE012840F2FF33B8BF05
:1043F00001209842A8BF184604EBC00000220C4BD5
:10440000E4E802238442F9D105F50053183300266D
:10441000084FE0E802679842F9D12846BDE8F84025
:10442000FFF7AEBEAFF300800000000000F88F4041
:104430000000F03F0000F0BF9FED257B90ED000BEA
:1044400038B520EE070B00F118040546FFF735FEDE
:10445000012840F2FF33B7EE006B2246B8BF0120BF
:104460009842A8BF1846431E07EE103AC0F5806375
:10447000B8EEC77B86EE074B07EE103A0023B8EE86
:10448000C77B86EE075B07EE903A01339842B8EEA1
:10449000E77B27EE047BA2EC027BF4D105F5005309
:1044A00004EBC0040022183307EE902A0132B8EE64
:1044B000E76BBFEE007BA6EE057BA4EC027B9C4283
:1044C000F2D12846BDE83840FFF75ABEAFF300806E
:1044D0000000000000F88F4010B59FED230B04464C
:1044E000FFF7EBFD012840F2FF33B7EE006B4FF012
:1044F0000002B8BF01209842A8BF1846431E07EE2D
:10450000103AC0F58063B8EEC77B86EE074B07EE26
:10451000103A04F118031946B8EEC77B86EE075B24
:1045200007EE902A01329042B8EEE77B27EE047B3B
:10453000A1EC027BF4D104F5005203EBC00300218F
:10454000183207EE901A0131B8EEE76BBFEE007B30
:10455000A6EE057BA3EC027B9342F2D12046BDE898
:104560001040FFF70DBE00BF0000000000F87F40C4
:104570002DE9F04182EAE27406460D469046A4EB2E
:10458000E274AC4221DCB4F1805FB4BFE0004FF0D4
:10459000FF3015F02BFFB8F1000F074617DA2D1B7F
:1045A000E200314618F0C4FC3046EA0006EBC401D4
:1045B00018F00CFC3946E20006EBC50018F0B8FC18
:1045C0003846BDE8F04115F0FCBE641BD9E7F7D0D2
:1045D000291BE200CD0006EBC10118F0A9FC2A4618
:1045E000314606EBC40018F0F1FB3946E2003046D4
:1045F000E4E70000000000002DE9F0419FED380BDA
:104600002DED048B0546FFF758FD012840F2FF33DE
:10461000B7EE006B05F11804B8BF01202246A04692
:104620009842A8BF1846431E07EE103AC0F58063B3
:10463000B8EEC77B86EE074B07EE103A0023B8EEC4
:10464000C77B86EE075B07EE903A01339842B8EEDF
:10465000E77B27EE047BA2EC027BF4D105F5005644
:1046600004EBC0000023183607EE903A0133B8EE91
:10467000E76BBFEE007BA6EE057BA0EC027BB042B1
:10468000F2D105F5D03797ED709B97ED728B94EDD5
:10469000007BB0EE480BA9EE070B16F019FFB1EE48
:1046A000400BA4EC020BB442F1D197ED747B9FED6B
:1046B0000E6B9FED0F0B27EE067B87EE000BFFF7CF
:1046C000FCFC4FF4806102464046FFF751FF28464C
:1046D000BDEC048BBDE8F041FFF752BDAFF30080A5
:1046E0000000000000F87F40000000000000904043
:1046F00000000000008076408368023B042B04D851
:10470000DFE803F00507090B0D00FFF701BEFFF717
:1047100027BEFFF75DBEFFF78FBEFFF76DBFFFF748
:10472000DBBE002905DB82688A4202D08160FFF788
:10473000E3BF704780ED000BFFF7DEBF0000000015
:10474000836B013B10B504462DED068BB7EE008B55
:10475000042B00F2B080DFE803F0031C3162970005
:1047600090ED0A0B9FED587B9FED599B20EE070BB8
:1047700090ED127B20EE070B16F046F838EE408BDA
:1047800084ED048B84ED069BBDEC068B84ED080B59
:1047900010BD90ED0A0B9FED4C7B20EE070B90EDCA
:1047A000127B20EE070B16F02FF8B6EE007B30EEF2
:1047B000088B28EE078BB1EE489BE1E790ED0A0BE2
:1047C0009FED457B90ED0CABB6EE006B20EE070B3A
:1047D0003AEE489B90ED127B29EE069B20EE070BEC
:1047E00016F046FEB4EEC8ABF1EE10FA10DB30EE78
:1047F000486B30EE087B86EE070B39EE088BA0EE97
:10480000098BA0EE099B39EE009BB1EE400BB7E798
:1048100030EE4A7B3AEE00AB87EE0A0BEDE790ED07
:104820000CABB6EE007B3AEE489B90ED0A0B29EEFE
:10483000079B9FED297B20EE070B90ED127B20EE6E
:10484000070B16F015FEB4EEC8ABF1EE10FA10DB54
:1048500030EE486B30EE087B86EE070BB0EE407B07
:1048600039EE088BA0EE097BA0EE498B37EE499B11
:10487000CBE7BFEE007BB0EE486BAAEE007BAAEE62
:10488000006B87EE060BE9E790ED0A0B9FED127BBC
:10489000B7EE009B20EE070B90ED127B20EE070B8E
:1048A00016F0E6FD30EE487B30EE080B87EE008B0D
:1048B000B1EE480B64E79FED069BB7EE008BB0EEC0
:1048C000490B5DE7AFF30080182D4454FB2119C05C
:1048D0000000000000000000182D4454FB21094096
:1048E000B5EEC00BF1EE10FA01DD80ED100B90ED8E
:1048F000106BB7EE005B85EE067B80ED127BFFF759
:104900001FBF8163FFF71CBFB5EEC00B9FED087B97
:10491000F1EE10FA05DDB4EEC07BF1EE10FA20FEE8
:10492000077B80ED0A7BFFF70BBF00BFAFF3008072
:10493000000000000088D3400022134B10B59FED0B
:104940000E0BC0E90C230446FFF7CAFF00232046E4
:10495000A363FFF7F5FE204609A3D3E90023C4E9CA
:104960000A23FFF7EDFE002200232046C4E90023BE
:10497000C4E9022310BD00BF000000008088E540AC
:10498000000000000088D3400000F03F0022002318
:10499000C0E90023C0E90223704738B500F551345F
:1049A00000F550352DED048BB0EE408B04F5E07032
:1049B000FEF77EF904F1F000B0EE480BFDF7A8FD1C
:1049C000B7EEC89B04F50470B7EEC99AB0EE490B78
:1049D000FFF744FBB0EE490B04F50C70FEF742F80C
:1049E000B0EE490B04F52870FFF738FBB0EE490B29
:1049F00004F53070FFF732FBB0EE480B04F54C7055
:104A0000FFF76EFFB0EE480B04F56070FFF768FF2C
:104A1000B0EE480B04F57470FEF724F8B1EE007B9D
:104A200004F5387028EE078BB0EE480BFFF758FFFF
:104A3000B0EE480B05F56C70FEF760F8B0EE480B71
:104A400005F57E70BDEC048BBDE8384000F074BC09
:104A50009FED057B00F5523020EE070B80ED1C0B1F
:104A6000704700BFAFF300807B14AE47E17A843F0C
:104A70009FED077B10B500F5523484ED180B20EE46
:104A8000070B15F0C1FE84ED120B10BDAFF30080D3
:104A90002288885F1C79BD3FB5EEC00BF1EE10FA9D
:104AA00011DB00F5523300F551309FED077B83EDAC
:104AB0001E0B00F5047020EE070BB7EEC00BB7EE2F
:104AC000C00AFFF7D5BA70479A9999999999C93F41
:104AD00000F5503310B500F55234D3F8041904F53D
:104AE0008272914206D100F55130BDE81040F0309D
:104AF000FDF73ABC03F6F803B2EE081BB0EE000B6C
:104B000093ED007A9FED086BB8EEC77B37EE467BDE
:104B100087EE011B16F0F8F89FED057B20EE070BE2
:104B200084ED140B10BD00BF000000000040514098
:104B30000000000000807B4010B500F552349FED6E
:104B40001E7B94ED226B2DED048B94ED200B86EEF5
:104B5000078B9FED1B7B9FED1C9B80EE070B15F0D9
:104B60009FFFB7EE004B9FED1A7B9FED1B5B9FED08
:104B70001C3B80EE076B9FED1C7B38EE098BA8EE8B
:104B8000075B9FED1B7BA8EE037B36EE096BBDEC4C
:104B9000048B27EE067B34EE464BA4EE057B9FED9F
:104BA000165B84ED287B9FED167BA6EE057B84EDDE
:104BB000267B10BDAFF300800000000000005940CC
:104BC000575994610B9D73400000000000000000E5
:104BD000A3C4C994B7410040F312A7DE3895E73F5C
:104BE0001ACF2ECC37C71040069D3CFC24310E4016
:104BF000EC2717A3B6A8EB3FCCA30FDED9B9A83F8B
:104C0000A9389B314ED7D23F00F5523383ED200BAC
:104C1000FFF792BF00F5523383ED220BFFF78CBFF5
:104C20002DE9F04F06462DED088B89B006F550357D
:104C3000FFF766FA06F5D03306F55134B7EE009B60
:104C400003F5EC7304F1F00704F50C7918460793AB
:104C5000FFF756FA05F56C70FDF776FF05F57E70E7
:104C600000F076FC3846FDF79BFC04F5E07304F594
:104C70004C7B04F5607A18460293FDF7EDFF04F5CE
:104C8000047318460393FFF7CFF94846FDF710FF6A
:104C900004F5287318460493FFF7C6F904F530733A
:104CA00018460593FFF7C0F904F5387318460193C9
:104CB000FFF742FE5846FFF73FFE5046FFF73CFE27
:104CC00004F57470FDF7F4FE06F552314FF0FF3035
:104CD00001F5827201F160039FED737BC5F808292D
:104CE000C5F8042900220693C5F80C2981ED107B34
:104CF00081ED147B9FED6E7B81ED129B9FED6E6BC2
:104D000003ED027BBAEE087B9FED6D8B81ED187B86
:104D1000B2EE087B81ED246B81ED1A7B9FED6A7BFF
:104D2000B0EE086B81ED207B81ED2E7B9FED687BE3
:104D30009FED69BB9FED6AAB81ED347BB3EE097BE0
:104D400081ED2A6B81ED2C6B81ED1C8B81ED1EBBFF
:104D500081ED30AB81ED329B81ED368B81ED389B5F
:104D6000C5F8F8084FF48070C5F8FC28A5F80009CC
:104D7000304681ED227BFFF7DFFE314605F56C7092
:104D8000FDF712FF05F56C700621FDF7D1FE0799BE
:104D900005F56C70FDF70AFF05F56C700521FDF750
:104DA000CCFE00210298FDF7B3FFB0EE480B384669
:104DB000FDF706FB38469FED4C0BFDF739FB05F57B
:104DC0009E633846B6EE000B83ED048BFDF768FB5F
:104DD000B0EE490B3846FDF7C7FBB0EE4B0B03981E
:104DE000FFF746F902214846FDF745FE48469FED8C
:104DF000400BFDF747FEB0EE4A0B4846FDF73EFE7E
:104E0000B0EE480B0498FFF733F9B2EE0E0B05989D
:104E1000FFF72EF901980221FFF773FD5846022192
:104E2000FFF76FFD50460521FFF76BFD062104F5E6
:104E30007470FDF720FE069B304613ED020BFFF762
:104E4000ACFDD5F8F003B6EE000BFFF773FCD5F818
:104E5000F403B6EE000BFFF76DFC01989FED260BF7
:104E6000FFF752FD58469FED260BFFF74DFD5046CC
:104E70009FED250BFFF748FD04F574709FED240BA3
:104E8000FDF7FCFD04F574709FED230BFDF7FEFDAF
:104E900005F594609FED220BFFF736FD304609B013
:104EA000BDEC088BBDE8F08F0000000000807B4067
:104EB000000000008088E540555555555555E53FA3
:104EC00000000000000000000000000000408F40D3
:104ED00000000000000049400000000000004E40BB
:104EE000000000000000694000000000003893400E
:104EF0007E58C724181508C091ED7C3F353E4640CA
:104F0000986E1283C02A38406ABC749318042C40EF
:104F10001B9E5E29CB101E40CDCCCCCCCCCC1240FD
:104F20000000000000C0624010B500F5523400F5EA
:104F3000503000F5D46300F5B86093ED061B94ED96
:104F4000162B90ED0A0BFEF79FFF0022014BC4E9E0
:104F50003A2310BD0000F03F10B500F5523400F5C3
:104F6000503000F5D86300F5B86093ED061B94ED62
:104F7000162B90ED0A0BFEF787FF0022014BC4E9C8
:104F80003C2310BD0000F03F10B5044600F5513041
:104F900000F5E070FDF7ACFE2046FFF7C5FF2046A8
:104FA000BDE81040FFF7D8BF2DE9F84300F55037B2
:104FB0000546914600F5513697F801392DED048BE1
:104FC00009EE101ADBB107F56C70FDF7F1FD07F57E
:104FD0007E7000F0ABFA06F53870FFF7D7FC06F5E7
:104FE0004C70FFF7D3FC06F56070FFF7CFFC06F5B9
:104FF0007470FDF74FFD06F50C70FDF74BFD05F5E0
:10500000513805F5523408F1F008B9F1000F32D0EB
:10501000D4E91C0194ED300BC4E936012846FFF7B2
:10502000B3FF94ED340B4046FDF73AFAB8EEC97B76
:1050300094ED100B9FED168B20EE088B9FED160B59
:1050400027EE000B15F0E0FB07F5C26306F5E070F4
:1050500028EE000B84ED140B83ED020BFDF7B5FD7C
:1050600001214046FDF772F90023BDEC048B87F85F
:105070000139BDE8F8830020002194ED2E0BC4E92E
:1050800036012846FFF780FF94ED320BCBE700BFD7
:1050900015B7310AFE06933FEAF7A2FE0393AD3F30
:1050A000F8B500F5523500EE101A0446174695ED96
:1050B000107B2DED028B9FED1A8B27EE088BB8EE3F
:1050C000C07B9FED190B27EE000B15F09DFB28EE22
:1050D000000B85ED140BBFB1D5E91C0195ED300B2C
:1050E000C5E936012046FFF74FFF95ED340B04F577
:1050F000513004F55034F030FDF7D2F90023BDEC07
:10510000028B84F80139F8BD0020002195ED2E0BAB
:10511000C5E936012046FFF737FF95ED320BE6E78C
:1051200015B7310AFE06933FEAF7A2FE0393AD3F9F
:1051300070B505460468AC4200D170BD204650F8F9
:10514000086BFEF7B9FF20462021344615F037F9E9
:10515000F1E770B500F55234064604F5827406F5A1
:1051600050352046FFF7E4FF002306F55130C5F81F
:105170000849C5F80C39F030C5F80449FDF7F4F8D2
:105180004FF0FF33C5F8F83870BD2DE9F04300F556
:1051900052368DB080460F46154600F5503406F560
:1051A0008276002A3DD1134606A800920DF10C0923
:1051B000FEF76FFFD4F804190595CDE903998E42E7
:1051C00018D14846FFF7B4FFD4F8043939464046B1
:1051D000B34214BF9B684FF0FF33C4F8F838FFF7B1
:1051E00077FC06A8FEF768FF002384F801390DB0AC
:1051F000BDE8F0838B6806980D6898420FD103983C
:1052000081420CD085420AD02A4615F0F1F8059B60
:1052100001330593D4F80C39013BC4F80C39294605
:10522000CDE7632AD4F80439D4BF00220122B34267
:1052300023D1FFF7B9FE00232A463946C4F8F8788F
:1052400006A8009306AEFEF724FF2020D4F80489B8
:1052500015F0BBF8074600F108050FCE0FC596E81C
:10526000030085E803004146384615F0CFF8D4F82E
:105270000C390133C4F80C39B3E7FFF711FFDAE753
:1052800090ED1C7B10B52DED0A8B90ED268B04461E
:1052900028EE078BB0EE480B16F0AAF8B0EE40BB34
:1052A000B0EE480B16F04CF8B0EE40ABB5EE000B8C
:1052B0009FED1F7B38EE477B27EE000B16F0D8F8EA
:1052C000B0EE40CBB1EE480B94ED229B15F09CFA6A
:1052D000ACEE4ABBD4F8A0300F2BB7EE007B37EE14
:1052E000495B8CEE0B6B20EE450BA9EE060B30EE06
:1052F000076BA0EE007B30EE005B84ED006B26EECA
:10530000066BA5EE0A7B84ED020B86EE075B25EEAD
:10531000055B89EE057B84ED167B05D1B1EE016B53
:1053200027EE067B84ED167BBDEC0A8B10BD00BF1B
:10533000182D4454FB210940B5EEC00B10B5F1EE19
:1053400010FA044601DD80ED240B94ED246B9FEDF3
:10535000085B04F1A80085EE067B84ED267BFFF751
:10536000BFFA2046FFF78CFF10BD00BFAFF30080EF
:10537000182D4454FB2119400F29F8B537D80022C5
:10538000644BC0F8A0100E2900F2BC80DFE811F0D9
:10539000BA000F001A00230032003D0048005600FA
:1053A0006900740080008D009A00A500B1000024FF
:1053B0000025C0E90E23C0E90C45C0E91045C0E94D
:1053C000124512E000240025C0E90C45C0E90E4555
:1053D000C0E91023F3E700240025C0E90C45C0E92B
:1053E0000E45C0E91045C0E91223C0E91445FBF79A
:1053F0005FF9F8BD00240025C0E90C45C0E90E4561
:10540000C0E91045C0E9124528E0C0E90C2300229C
:10541000414BC0E90E2300220023C0E910230AE01B
:10542000C0E90C23C0E9102300244FF040450022BE
:105430000023C0E90E45C0E912230FE0C0E90C23A8
:105440000022364BC0E90E230022354BC0E9102361
:105450000022314BC0E9122300220023C0E91423AB
:10546000C5E700242F4D00262F4FC0E90C23C0E9CB
:105470000E45C0E91067C5E700240025C0E91023E8
:10548000C0E90C45C0E90E4500244FF04045B9E79E
:1054900000240025C0E90C45C0E90E45C0E91045CF
:1054A000C0E9122300221C4BD8E7C0E90E230024D8
:1054B00000221A4B0025C0E91023C0E90C45002248
:1054C000174BEDE700240025C0E91023C0E90C4587
:1054D0000022114BC0E90E4585E700240025002677
:1054E0004FF04047C0E90C45C0E90E23C0E9106702
:1054F00079E700240025C0E90E23C0E90C4500220D
:10550000054B65E7C0E90C2300220023C0E90E2308
:1055100083E700BF0000F03F0000F0BF000008C0BC
:1055200000000840000010C00000184010B50446FC
:10553000A830FFF72BFA00220023C4E90423C4E9B2
:105540000623C4E90823C4E90A2310BD00000000B3
:1055500038B50446A830FFF7EFF900221E4B0020B3
:105560001E49C4E91C2300220023C4E91E23C4E908
:105570002023C4E9222312A3D3E90023C4E91A019A
:10558000C4E9242310A3D3E90023C4E91801C4E922
:105590002623022104F1A800FFF7B3F904F1A800C3
:1055A0009FED0B0BFFF7B0F90F212046FFF7E4FE4C
:1055B0002046FFF765FE2046FFF7B8FF204638BDBE
:1055C000000000008088E540EEE1914BB2AC223F44
:1055D0000000000000C0624000408F400000F03F2B
:1055E000704700BF143001F093BC00BF143001F0CD
:1055F0008BBC00BF30B5054683B0143001F076FC9B
:1056000005F1140001F080FC05F114008DED010A94
:1056100001F068FCD0ED007A9DED010AF8EE677AA2
:1056200080EE277A85ED1B7A03B030BD08B51430C3
:1056300001F058FC006808BD00B540F203308FB09F
:1056400000224FF60B7340F20341ADF808000092C0
:1056500009A8ADF81030ADF824300123ADF80C10D6
:10566000029907920C92CDE90522CDE90A2202F0B7
:10567000E7FB002204A801230399009202F0E0FB5B
:1056800009A802F0EFFC10B901200FB000BD04A87A
:1056900002F0E8FC80F00100C0B240000FB000BD95
:1056A000F0B503239DB00125002416934FF60B7728
:1056B000384B0646ADF854701393A3F19F631294D0
:1056C000A3F57D431995CDE917541493FFF7B4FF63
:1056D000A8423CD002282AD12F4B2A460094CDF86C
:1056E000523040F60133ADF83470ADF82030234627
:1056F00008991094CDE91A450DAD2846CDE90E4420
:1057000002F09EFB2146284602F0B8FC12A906F1E1
:10571000700004F0B1FB214B0FCB85E80F00326F16
:10572000294606F1140001F0A3FB1DB0F0BD40F6C0
:105730000132194B06F158001B95ADF820200DAD34
:1057400008991A94CDF8523000F04EFADEE7102294
:10575000114908900DAD8DF83020114ACDF8521046
:1057600008A90A90039009920B940494CDE91A04B5
:1057700004A802F0FBFD0821039B2846079105A918
:10578000049AADF814308DF8164006930D9400F08D
:1057900069FABBE7040204040406040380E101245F
:1057A0000704010B70B540F2011284B0374B044678
:1057B000ADF80C2000220291012599888DF80E2069
:1057C0001A89E180228199891A8A18886181A281C7
:1057D000998A1A8D9B8DE181A3872285A0802582DD
:1057E000E562256404F0BAFF064604F00FFE0346A6
:1057F00010BB0EB302A904F150008DF80E5004F056
:105800002FFF072E3AD12046FFF74AFF04F114007C
:1058100001F07AFB04F114008DED010A01F062FB46
:10582000D0ED007A9DED010AF8EE677A80EE277AD6
:1058300084ED1B7A04B070BD02A904F150000193FD
:1058400004F00EFF072E019B02D1002BDBD006E0F7
:10585000211D2046019303F047FD019B9BB104F1FC
:105860002801084602F0D4F804F13C01084602F091
:10587000CFF804F1120000F013FBC4E7211D20460D
:1058800003F032FDBFE7002EE9D0BCE768E1012458
:105890002DE9F04F06460C46002706F568793D468F
:1058A0002DED028BADF5257DFFF79AFE21463046A2
:1058B0000DF1240AFFF776FF302130460DF12C0B55
:1058C000FFF798FE3046FFF791FE3046B0EE408A73
:1058D000FFF7ACFE40F601729C4907EE900A0DF10D
:1058E0003408ADF808209A4A44469A48F8EE677A98
:1058F000994B9FED9A0AC8EE278ACDE9051202F16D
:105900007D4202F2FE220792954A089202F1784205
:1059100002F60212CAF80020924ACAF80420924AFB
:10592000CBE900020FCB07C4238006F5597002991A
:1059300011AC01F053FC4FF4807206F56270ADF8C3
:105940000C200122039901F067FB05AB48460022B9
:1059500033F81730ADF8103006AB33F8173023802A
:1059600001230499009502F06BFA012309F1140058
:1059700000950022216802F063FA7B1C09F12809D6
:105980000127022BE1D14FF60B73E5602562274614
:105990006563A56425666567C4F88850C4F89C50A3
:1059A0002380A3822385A387A4F85430A4F8683009
:1059B000A4F87C30A4F89030C4E90155C4E9065538
:1059C000C4E90B55C4E91055C4E91655C4E91B5583
:1059D000C4E92055C4E92555A4F8A830C4F8B4504A
:1059E000C4F8DC50C4F8F050C4F80851C4F81C5195
:1059F000C4F83051C4F84451A4F8D030A4F8E430CD
:105A0000A4F8FC30A4F81031A4F82431A4F83831FB
:105A1000A4F85031C4E92B55C4E92F35C4E93155F8
:105A2000C4E93555C4E93A55C4E94055C4E945557A
:105A3000C4E94A55C4E94F55C4E95555C4F85C5109
:105A4000C4F87051C4F88451C4F89851C4F8B051E6
:105A5000C4F8C451C4F8D851C4F8EC51A4F8643166
:105A6000A4F87831A4F88C31A4F8A431A4F8B831A2
:105A7000A4F8CC31A4F8E031A4F8F831C4E95A55BF
:105A8000C4E95F55C4E96455C4E96A55C4E96F5572
:105A9000C4E97455C4E97955C4E97F55C4F8045282
:105AA000C4F81852C4F82C52C4F84052A4F80C326E
:105AB000A4F82032A4F83432C4E98455C4E98955E5
:105AC000C4E98E55002538F81510013538460222F4
:105AD00001F066FC072D07F15407F4D106F1180711
